:020000040800F2
:10000000E05000246D03000845690008855D000884
:1000100029690008990A0008D57900080000000045
:10002000000000000000000000000000AD02000819
:10003000350D00080000000009030008956D000858
:100040008B0300088B0300088B0300088B03000858
:100050008B0300088B0300088B0300088B03000848
:100060008B0300088B0300088B030008C90A0008F3
:10007000D50A00088B030008E10A00088B0300087A
:100080008B0300088B0300088B0300088B03000818
:100090008B0300088B0300088B030008390D000850
:1000A0008B030008616F00088B0300088B030008B6
:1000B0008B0300088B0300088B0300088B030008E8
:1000C0008B0300088B0300088B030008496C0008B1
:1000D0008B0300088B0300088B0300088B030008C8
:1000E0008B0300088B030008000000008B0300084E
:1000F0008B0300088B0300088B0300088B030008A8
:100100008B0300088B0300088B0300088B03000897
:100110008B0300088B0300088B0300088B03000887
:100120008B0300088B0300088B0300088B03000877
:100130008B0300088B0300088B0300088B03000867
:1001400000000000000000000000000000000000AF
:100150008B0300088B0300088B0300088B03000847
:100160008B0300088B0300088B0300088B03000837
:100170008B0300088B030008BD0A00080000000084
:100180008B0300088B0300088B0300088B03000817
:100190008B0300088B0300088B0300088B03000807
:1001A0008B0300088B0300088B0300088B030008F7
:1001B0008B0300088B0300088B0300088B030008E7
:1001C0008B0300088B0300088B0300088B030008D7
:1001D0008B0300088B0300088B0300088B030008C7
:1001E0008B0300088B0300088B0300088B030008B7
:1001F0008B0300088B0300088B0300088B030008A7
:100200008B0300088B0300088B0300088B03000896
:100210008B0300088B0300088B0300088B03000886
:100220008B0300088B03000809620008000000002F
:100230008B0300088B030008000000008B030008FC
:100240008B0300088B0300088B0300088B03000856
:100250008B0300088B0300088B0300088B03000846
:100260008B0300088B0300088B0300088B03000836
:100270008B0300088B0300088B03000800000000BC
:100280008B0300088B0300088B03000800000000AC
:10029000000000008B030008DFF80CD000F0BEFA6D
:1002A0000048004705830008E05000242C4B1968E3
:1002B0000868B0E8F04F80F30988BFF36F8F4FF004
:1002C000000080F3118870470000000008480068B3
:1002D000006880F308884FF0000080F3148862B64D
:1002E00061B6BFF34F8FBFF36F8F00DF00BF00BF5A
:1002F00008ED00E0DFF80C00016841F470010160D6
:10030000704700BF88ED00E0EFF30980BFF36F8F07
:10031000134B1A681EF0100F08BF20ED108A20E959
:10032000F04F106009B44FF0500080F31188BFF314
:100330004F8FBFF36F8F08F0FFFE4FF0000080F388
:10034000118809BC19680868B0E8F04F1EF0100F5A
:1003500008BFB0EC108A80F30988BFF36F8F704735
:1003600044000024EFF305807047000007488047F1
:100370000748804707480047FEE7FEE7FEE7FEE73D
:10038000FEE7FEE7FEE7FEE7FEE7FEE7850D000875
:10039000696E0008990200082DE9F05F054600200B
:1003A00092469B4688460646814640241BE02846E6
:1003B00041464746224600F069F853465A46C01A5D
:1003C000914110D311461846224600F050F82D1ADC
:1003D00067EB01084F4622460120002100F047F854
:1003E00017EB00094E41201EA4F10104DFDC484652
:1003F00031462A464346BDE8F09F40EA01039B0789
:1004000003D009E008C9121F08C0042AFAD203E089
:1004100011F8013B00F8013B521EF9D27047D2B2ED
:1004200001E000F8012B491EFBD270470022F6E7DD
:1004300010B513460A4604461946FFF7F0FF20465A
:1004400010BD30B50B46014600202022012409E0F2
:1004500021FA02F59D4205D303FA02F5491B04FA7D
:1004600002F52844151EA2F10102F1DC30BD202A5C
:1004700004DB203A00FA02F1002070479140C2F1FB
:10048000200320FA03F3194390407047202A04DB2D
:10049000203A21FA02F00021704721FA02F3D040FD
:1004A000C2F1200291400843194670472DE9FE4FE2
:1004B000804681EA0300C00F0C46009021F0004105
:1004C00023F00045B8EB0200A94105D24046214681
:1004D00090461C460B46024623F00040104347D08E
:1004E000270DC7F30A00C3F30A510290401A019086
:1004F00040286BDAC3F3130040F4801B0098924647
:1005000020B10023D2EB030A63EB0B0B0198594691
:10051000C0F140025046FFF7AAFF06460D4650467E
:100520005946019A00F08CF910EB08006141002453
:1005300087EA115284EAE7731A4340D0009A62B303
:10054000019A012A4FEA075215DC001B61EB0201F8
:100550004FF0004202EA0752CDE90042001C41F58B
:10056000801132462B4600F08CF903B0BDE8F08FC5
:1005700040462146F9E7001B61EB0201001C41F5F2
:10058000801300185B412018A2F5001747EB030108
:1005900040EAD570B6196D4111E06D084FEA360694
:1005A00045EAC0754FEA0752001B61EB0201001CCF
:1005B00041F5801149084FEA300000195141324697
:1005C0002B4603B0BDE8F04F00F04CB90098012273
:1005D00040000023D0EB020263EBE0730098214659
:1005E0004FEAE074B8EB000061EB0401E9E783F047
:1005F00000435BE781F0004158E72DE9FE4F81EAB7
:10060000030404F0004421F0004100944FF0000B7B
:1006100023F0004350EA01045ED052EA03045BD0A9
:10062000C3F30A54C1F30A552C44A4F2F3340194E1
:10063000A0FB0254C1F3130141F48011C3F313036F
:1006400043F4801301FB024400FB034E840A970A23
:1006500044EA815447EA8357A4FB076802958D0A50
:1006600005FB07854FEA932C04FB0C542705029DDC
:100670004FEA065847EA1637B5EB08056EEB070C4C
:10068000870E920E47EA811742EA8312A7FB020106
:10069000B6EB0B0164EB00042B0D43EA0C335E1840
:1006A00044EB1C50DA465146E7FB0201C5F3130444
:1006B0004FEA0B3343EA14534FEA0432019C43EAF6
:1006C0000603A4F10C040294009CCDE900B400F0F0
:1006D000D8F803B0BDE8F08F00200146F9E72DE916
:1006E000F04D81EA030404F0004B21F0004514466C
:1006F0004FF0000A23F0004150EA050220D054EAEE
:1007000001021DD0C5F30A570246C5F31303C1F316
:100710001300C1F30A5640F4801543F48013A7EB8D
:100720000608101BD64608F2FD3873EB050002D30D
:1007300008F1010801E092185B41B8F1000F03DAFB
:1007400000200146BDE8F08D00204FF480110646E0
:1007500084460EE0171B73EB050705D3121B63EBF2
:10076000050306434CEA010C49084FEA3000921891
:100770005B4150EA0107EDD152EA030012D082EA50
:10078000040083EA0501084305D0101BAB4106D2E3
:100790000122002306E000224FF0004302E06FF048
:1007A000010253101AEB06004CEB085110EB0A0043
:1007B00041EB0B01BDE8F04D00F054B8C1F30A5213
:1007C000C1F3130140F2FF3341F480119A4202DA7F
:1007D00000200146704740F233439A42A2F233426E
:1007E00002DC5242FFF752BEFFF741BE30B5041E95
:1007F00071F1000404DB4FF00044404264EB01015E
:10080000141E73F1000405DB1C464FF000435242F6
:1008100063EB0403994208BF904230BD064C074D7C
:1008200006E0E06840F0010394E8070098471034C0
:10083000AC42F6D3FFF734FD789F0008989F00087C
:10084000202A06DBCB17203A41FA02F043EAE07394
:1008500006E041FA02F3D040C2F120029140084381
:100860001946704710B5141E73F1000408DA401CD5
:1008700041F1000192185B411A4301D120F00100BF
:1008800010BD2DE9F04D92469B4611B1B1FA81F2AF
:1008900002E0B0FA80F220329046FFF7E8FD04460D
:1008A0000F4640EA0A0041EA0B0153465A46084304
:1008B00013D0114653EA010019D0C8F14002504646
:1008C000FFF7E4FD05460E46504659464246FFF7FF
:1008D000CEFD084305D0012004E020463946BDE89E
:1008E000F08D0020054346EAE0762C4337430A9812
:1008F0006305E40AA0EB08000022FD0A44EA47541D
:100900000A3002D500200146E9E7010510196941C6
:10091000DDE9084500196941BDE8F04DA2E7000096
:1009200070B53A4905460068884202D0384A90427C
:1009300002D1D1F8080302E03648D0F8080310F4D9
:10094000403F11D003F002FF04466868B0F5803FD5
:1009500006D0B0F5003F03D0B0F5403F27D101E00D
:10096000000C18E0A40822E000214FF4002002F05F
:1009700057FF044668688103890B18D181140C293C
:1009800015D2DFE801F0140606060606060B0D0F69
:100990001113800C4000B4FBF0F408E0240906E0D9
:1009A000640904E0A40902E0E40900E0240A02F07A
:1009B00017FA41F20301884208D817488442286890
:1009C000816813D821F48071816070BD134960087B
:1009D000884204D82868816821F44071F4E71049FE
:1009E000884206D82868816821F4407141F48071FA
:1009F000EAE70C4988422868816804D821F44071EC
:100A000041F40071E0E741F44071DDE7002002406D
:100A10000021024000600258002D3101105E5F008D
:100A200020BCBE0040787D0170B504460068816836
:100A30008268C1F3400112F0010F28D039BB8168F0
:100A400001F00D01012914D18168124A1140891C5D
:100A5000816021680320086002F0C8F9054612E0B1
:100A600002F0C4F9401B02280DD920688068C00735
:100A700009D0606D40F010006065A06D40F001008D
:100A8000A065012070BD20688068C007E8D1002003
:100A900070BD0000C0FFFF7FFEE710B5806B816C6A
:100AA000496D022906D0012180F83510C16C41F052
:100AB0004001C16400F000FF10BD0000014800F0DB
:100AC00045BF0000B0080024014801F08BBA0000C7
:100AD00000090024014801F085BA0000CC0B002475
:100AE0000B4808B501F07EFA0020009009486946DD
:100AF000006808F076FD0098002807D006494FF0FE
:100B000080500860BFF34F8FBFF36F8F08BD0000A8
:100B1000040E00240800002404ED00E0294A0168C6
:100B200091423AD0274A1832914236D0254A303283
:100B3000914232D0234A483291422ED0214A60322B
:100B400091422AD01F4A7832914226D01D4A9032D3
:100B5000914222D01B4AA83291421ED01A4A914299
:100B60001BD0194A1832914217D0174A303291429D
:100B700013D0154A483291420FD0134A6032914245
:100B80000BD0114A7832914207D00F4A90329142ED
:100B900003D00D4AA832914211D1CAB21823103A9B
:100BA000B2FBF3F26FF30901032A02F00703074ACD
:100BB000D25CC26500D9091D81650846704721F0E5
:100BC000FF01F9E71000024010040240E09C000819
:100BD00030B5224A012301689142CAB21BD01F4C92
:100BE0001434A14217D01D4C2834A14213D01B4C01
:100BF0003C34A1420FD0194C5034A1420BD0174CB9
:100C00006434A14207D0154C7834A14203D0134C70
:100C10008C34A1420CD11421114C083AB2FBF1F1F1
:100C20000F4A803201F01F0504EB8101AB4010E058
:100C30000C4D1824103A0D44B2FBF4F1A82D00D845
:100C40000831094A01F01F0402EB8101064AA34062
:100C50008032603080E80E0030BD00000854025839
:100C600000580258F0FBFDBF0008024010B50279A1
:100C7000531E072B2DD8174C0168A1421BD0154CD1
:100C80001434A14217D0134C2834A14213D0114C74
:100C90003C34A1420FD00F4C5034A1420BD00D4C2C
:100CA0006434A14207D00B4C7834A14203D0094CE4
:100CB0008C34A14203D10849074C443102E0074972
:100CC000064C443104EB8202C0E91B21012199400A
:100CD000416710BD08540258FC580258FC080240F5
:100CE00010B583694FF0C074826A0146002053B189
:100CF000B3F5005F15D072B1012A0CD0022A0AD0D8
:100D0000032A09D104E01AB1012A06D0022A03D12C
:100D1000C96AC90100D5012010BDC96AA142FAD033
:100D200010BD002AF7D0012AF2D0022AF3D0032AFC
:100D3000F3D010BD704700007CB5202001F023FFE8
:100D40000D4C2068002815D00025019508F0DEFD27
:100D50000095072101AB0246206808F07BFF01984F
:100D6000002807D005494FF080500860BFF34F8F2F
:100D7000BFF36F8F7CBD0000C000002404ED00E0D5
:100D800072B6FEE7054805490839026842F00202DA
:100D9000026008688004FCD5704700000C480258C7
:100DA000F0B5D1E90843CD690A68C2B102682543AC
:100DB00022F4F84213431D430560D1E90125D1E92E
:100DC00003364C692A434568334389691A43EB0B60
:100DD0002243DB030A431A4342600020F0BDD1E9FD
:100DE000012ED1E9036CD1E9057142EA0E0246EA0F
:100DF0000C0632433A430A4301682A4322431A430A
:100E00006FF30E010A430260E7E7426943F6FE739F
:100E10009A4342EA410141610020704770B591E870
:100E20001C00C9686FF01F0506691A4305EB4414DE
:100E300044EA41210A4306EA45431A43026100207D
:100E400070BD00002DE9F04F8B8A6FF00F05264C26
:100E50004FF07F4BD1F80C9004EB03536FF0FF047D
:100E60004FEA042A1AB386684FEA09321F4FA2F5E7
:100E700080521A433E4032438260D1E900278E6897
:100E8000521E05EB07150F8A2A43C56804EB06249A
:100E90000E7E0AEB074322431A430BEB06610A431B
:100EA00005F070431A43C2600020BDE8F08F91E85E
:100EB00004110F4E521E0F8A05EB08152A4304EB4E
:100EC0000C2C06EB09350E7E42EA0C022A4385689B
:100ED0000AEB074422431A430BEB06610A4305F071
:100EE00070431A438260DFE70000F0FFFF0F0FFF3F
:100EF00000F0FFFF70B5B2EE042AF1EE041A2DEDFA
:100F0000048B1C4615460E469FED218ADFED218A93
:100F10009FED219AB0EE481AF0EE680AB0EE490A49
:100F200005F012FDB2EE042AF1EE041AB0EE481AF2
:100F3000F0EE680AB0EE490A304605F005FD96224B
:100F40002846B1EE040A4FF4006105F04BF9DFEDDD
:100F5000140A9FED141A9FED110AC4ED000A84EDE6
:100F6000051A84ED010A5A20012184ED040A05F0D6
:100F7000DDFE94ED010A0221BCEEC00ABDEC048B3B
:100F800010EE100ABDE87040C0B205F0CFBE000000
:100F90000AD7A33C0AD7A33B0AD7A33D0000000011
:100FA0000000B44200003443F8B50027044615465B
:100FB0000E46009790F8500001280BD0012084F8CD
:100FC00050002046FFF730FD0100606D04D040F076
:100FD00010002DE00220F8BD20F4885040F00200FF
:100FE0006065206806F4803205F08043134D1A4393
:100FF00083682B401A4342F000428260104A206806
:101000000EE0009B5B1C0093934209D3606D84F853
:10101000507020F0020040F0100060650120F8BD23
:101020008368DB0FEDD1606D20F0020040F001001D
:101030006065084684F85070F8BD0000C0FFFE3FB0
:1010400000F8C3252DE9F0470F4690F850109AB0EC
:10105000044601294FF0000915D00026DFF8F8807A
:10106000012084F8500015961696216841450ED14E
:101070003A4D0095284605F0C2F88246206805F0F2
:10108000BEF860B10EE002201AB0BDE8F087606DD6
:1010900084F8506040F0200060650120F4E7BAF168
:1010A000000F09D0616D4FF0010941F0200060652B
:1010B000484684F85060E7E720684146884201D0FE
:1010C000A84201D1264800E0264840F61F72D7F812
:1010D00000C0254BBCF1000F23D0D0F808C0D7F8D2
:1010E00004802CF4404C4CEA080CC0F808C0D4F83A
:1010F00000C08C4501D0AC4507D18968AB6801F0D0
:10110000010103F00103194302E0996801F00101B4
:101110000029CDD1BD6839688368294393431943B9
:1011200017E0876827F44047876027688F4201D01F
:10113000AF4207D18968AB6801F0010103F00103F8
:10114000194302E0996801F001010029B0D18168DA
:1011500091438160ACE70000002002400021024082
:101160000023024000630258006002582DE9F84F46
:101170000446EB4E0020DFF8ACB30090002794F853
:1011800050000D46DFF8A0A3012808D04FF0010958
:1011900084F85090206805F02EF818B171E1022013
:1011A000BDE8F88F286800280EDB21680303CA69B0
:1011B00028D090FAA0F0B0FA80F000BF00F01F0332
:1011C00009FA03F00243CA61D5E900124FF00C0C92
:1011D00020681F23C1F384610CEA921C02F01F02F5
:1011E000604493409140026B9A430A430263206833
:1011F00005F001F88046206804F0F9FF58EA000085
:1012000003D08DE0C0F38460D8E72A680423206807
:101210004FF0070CA96803EAD25318444369C2F39C
:1012200004520CFA02FC914023EA0C030B43436185
:10123000BE490968B9EB117F06D121686869C968A0
:10124000C1F38201490008E02068C168C906C1688D
:101250006869F5D501F01001490888402969042919
:101260002ED023682A6803EB810102F0F8420B6E4E
:10127000024303F0004010430866697E2268286933
:10128000012917D05FF0000102EB8000026E22F00E
:1012900000420A430266297E20682A6901290CD08F
:1012A0000021036902F01F02914023F4F0420A4337
:1012B000026135E04FF00041E6E74FF40061F0E7EE
:1012C00020682978026E02F0F842B2EB816F03D1F8
:1012D000016E21F00041016620682978426E02F01B
:1012E000F842B2EB816F03D1416E21F000414166BB
:1012F00020682978826E02F0F842B2EB816F03D148
:10130000816E21F00041816620682978C26E02F06A
:10131000F842B2EB816F03D1C16E21F00041C1668A
:101320002068816811F0010F72D150F8C03F2A7B0C
:10133000DFF8FCC1296802F018022CFA02FCC1F3A4
:10134000130823EA08030CEA010C43EA0C030360C8
:10135000E96859456CD177482268DFF8DCC1DFF8CD
:10136000DCB18242DFF8D8E17648774BDFF8DC81E8
:1013700022D12968614524D0B1EB4C0C38D0A1F1C1
:10138000496CBCF1080C35D0A1F1865CBCF1100CA5
:1013900032D0DFF8BCC1614528D071453AD08142D6
:1013A00030D0994232D06B48814201D16A4831E055
:1013B00041452ED169482DE0B2422AD129686145C4
:1013C00001D1012026E0A1F1066CBCF1040C0FD084
:1013D000A1F1496CBCF1080C0CD0A1F1865CBCF108
:1013E000100C09D0DFF868C1614507D15C4811E0F5
:1013F00058460FE05B480DE05B480BE0714509D0B3
:10140000814201D1184605E09942D1D1574801E007
:101410003CE00020D16903031AD090FAA0F0B0FAA2
:1014200080F000BF00F01F0309FA03F00143D1610F
:10143000D5F800C0BCF1000F28DA3E4B20684C49BB
:10144000DFF83091984201D0B04203D10A4602E061
:10145000800EE7E74A469268984202F0E07201D0B7
:10146000B04209D19D68D6F8088005F0010508F062
:10147000010845EA080503E0DAF8085005F001051F
:101480004DB1606D012740F020006065002084F8B8
:101490005000384684E6384DAC451CD115021AD4AC
:1014A0005045F3D1984202D0B04200D049468B68F3
:1014B00042F4000023F0E07202438A6030492F4872
:1014C0000968B1FBF0F04000801C00E0401E009075
:1014D0000028FBD1DAE72B4DAC450CD1D5010AD45D
:1014E0005045D3D1984202D0B04200D049468B68D3
:1014F00042F080700EE0244DAC45C7D15502C5D4F2
:101500005045C3D1984202D0B04200D049468B68C2
:1015100042F4800023F0E07202438A60B6E70000E4
:10152000002102400000FF47006002580010005CEC
:10153000FFFF0F000020024002003004400020198D
:101540000004002A0008302E001060320000844B96
:101550002000F01400002143000052470000B84F63
:101560000002B0258000501D00018021002090362F
:101570000023024000630258000084CB400D0300AA
:1015800030000024000052C70000B8CFF8B54FF07B
:10159000000604003546009602D0606D10B107E0E9
:1015A0000120F8BD204600F005F9A66584F85060DA
:1015B00020688168C1F3407119B18168704A114097
:1015C000816020688168C1F3007181B981686D4ACA
:1015D000114041F0805181606C496B480968B1FB52
:1015E000F0F0401C00E0401E00900028FBD1206875
:1015F0008168C1F3007141B9616D012541F01001AD
:101600006165A16D41F00101A16504F0F4FD616D1A
:10161000C90600D420B1606D012540F0100093E0B0
:10162000606D20F4807040F0020060652068816881
:1016300011F0010F1FD1564A564B904201D09842EB
:1016400007D191689E6801F0010106F0010631435F
:1016500003E05149896801F0010161B9904201D06C
:10166000984201D14D4800E04D488268616822F4FB
:101670007C120A43826001F0B3FB41F2030188420D
:1016800002D9A06810280CD0617D227FA368206B4E
:10169000490341EA024118430843217F01290CD044
:1016A00010E0607D227F216B400340EA024241F05E
:1016B0001000104340F00C00EFE7218C394A02EB98
:1016C00041410843616A29B1A26A01F4787101437A
:1016D00042EA01002168344BCA681A400243CA60DA
:1016E000206804F088FD0646206804F080FD304341
:1016F0001DD1216844F20303267DE26AC86842EAEC
:10170000863298431043C86094F8380001281ED0F0
:101710002068016921F0010101612068626B0169A3
:1017200021F07041114301612046FFF7F9F8E068AC
:10173000012820681CD0016B21F00F010163606D4E
:1017400020F0020040F0010060652846F8BD2068E6
:10175000A28F164FD4E9101C154E07EB0247A36C5D
:10176000026941EA0C013B43324019431143D3E77C
:10177000A269016B521E21F00F011143DEE7000048
:10178000C0FFFF5FC0FFFF7F400D0300300000245B
:101790000020024000210240006002580023024065
:1017A000006302580000FEFF03C0F0FF0100FFFFCE
:1017B0001EF800FC2DE9F043B7B00646142130A80E
:1017C000FEF734FEC0216846FEF730FE344930682B
:1017D000884261D100224FF002090715CDF8309000
:1017E0004FF400214FF04B0CCDE90012CDE90F7200
:1017F00003244FF0010814231192C9102991CDE957
:101800000A3CCDE90D841546684602F06DF908B131
:10181000FFF7B6FA2348016841F020010160006833
:1018200000F0200035901F480830016841F00401A5
:101830000160016801F004013591016841F0020185
:101840000160006830A900F002003590102081E8A6
:101850003100154801F0A4F9CDF8C09030A9134823
:10186000CDE9314501F09CF9114C092111484FF4A3
:10187000807C84E82300C2142046C4E90357930007
:10188000C4E907C56562C4E9052300F01FFF08B17C
:10189000FFF776FAF464A66337B0BDE8F083000082
:1018A00000200240D84402580008025800040258A0
:1018B000380800244000024010B5044600F044F807
:1018C000012802D105A006F087F8204600F03CF878
:1018D000BDE81040014607A006F07EB84649464FD5
:1018E000206F766572666C6F77206572726F720A10
:1018F0000000000048414C5F44434D495F4572720F
:101900006F7243616C6C6261636B3A307825782149
:101910002121210D0A00000010B501F067FA094CE1
:101920006168401AB0F57A7F06D301F05FFA606013
:1019300000216078A070617001216078401C6070A7
:10194000217010BD28000024C06C70472DE9F041C3
:1019500004460068234F0426056969070BD54661D4
:10196000E06C40F00200E06484F83560A06C07652C
:10197000A06C00F0F5F9A8070DD521680220486198
:10198000E06C40F00100E06484F83560A06C07650D
:10199000A06C00F0E5F9E80605D521681020486143
:1019A000204600F06FF8280705D521680820486117
:1019B000204600F017F9E80712D02068016889076F
:1019C00003D5C16821F01E01C16020680121C268F1
:1019D00022F00102C260206841612046FFF79CFFAF
:1019E000BDE8F0819B0A00082DE9F041040003D016
:1019F00094F8350018B105E00120BDE8F0812046DB
:101A000000F042F8A16902204FF0000E84F8350082
:101A100009B1C4F824E02068194A01681140016046
:101A2000D4E90452E168D4E9010C29431043A269C6
:101A3000084354F8201B40EA0C001043B4E8E810B7
:101A40000A68184328433043384340EA0C001043E7
:101A5000086054F8300C343C102805D12268E17F2E
:101A6000E06961F31F60906120680121C26842F063
:101A70001E02C260C4F84CE084F835100020BCE7B8
:101A800007F0E0FF704700002DE9F04387B0804683
:101A900014216846FEF7CAFC4949D8F8000088427C
:101AA0007DD14848016841F001010160006800F003
:101AB000010005904348001D016841F001010160EB
:101AC000016801F001010591016841F080010160A8
:101AD000016801F080010591016841F00401016095
:101AE000016801F004010591016841F008010160FD
:101AF000016801F008010591016841F002010160EF
:101B0000006802240025694600F0020005900326C3
:101B10000D2740208DE8F1002B4801F041F801AA83
:101B20002A484FF48079CDF80090694682E8F000A9
:101B300001F036F84FF43C6069468DE8F100244826
:101B400001F02EF8082069468DE8F100214801F0E7
:101B500027F84FF4607069468DE8F1001E4801F0E7
:101B60001FF81E4C4B221E494FF0040C20462160EA
:101B70000B1562608F14C4F824C01901A5603204EB
:101B8000C4E90353C4E90A652563C4E90571C4E9DE
:101B9000079200F09BFD08B1FFF7F2F800E00BE0C0
:101BA000C8F8484000220521C4F838804E2001F0D2
:101BB000E1FB4E2001F0D0FB07B0BDE8F083000050
:101BC00000000248DC44025800000258001C025881
:101BD00000080258000C02580004025800090024B2
:101BE0001000024070470000F0B590F86020012A14
:101BF00022D0C1EBC102012780F86070022380F877
:101C0000613000EB8202284D138F168EB2F83CC073
:101C1000D46A1B05283244EA064643EA4C530A2C90
:101C200046EA03060AD0092C08D0137B46EA036370
:101C300049B10B2C1AD01DE00220F0BDD36803F08F
:101C40007F433343F4E701684C6AAC431C434C6266
:101C5000016813688B6151680A2901D009291BD1D9
:101C6000D168026821F07F41916215E0118B0F4D20
:101C700043EA81430168CC69AC431C43CC610168F1
:101C800013680B6151680A2901D0092904D1D16870
:101C9000026821F07F411162002180F8617080F8B4
:101CA00060100846F0BD00000F0033FF0F003FFF3B
:101CB0002DE9F041040004D094F86100002518B12A
:101CC00007E00120BDE8F081204684F8605000F074
:101CD00033F8184E022084F861000123D4E9001083
:101CE000D4F81CC040F207120F6840EA0C003740DD
:101CF000384308602068A769A168466B394396435A
:101D0000314341632068E268016C6FF30F011143B6
:101D100001642068218AA28A466B090541EA425182
:101D200026F4401211434163656684F86130002057
:101D3000C8E70000BFFFF8FF08B500680649884201
:101D400008D10648016841F010010160006800F008
:101D50001000009008BD000000100052D44402584A
:101D60002DE9F05F28B190F83510022904D08021C8
:101D700041650120BDE8F09F904C904B0168183CF4
:101D800018338E4ADFF83C92A1428D4CDFF838E2DE
:101D90008E4FDFF83CB2DFF83CA28F4D8F4E31D032
:101DA00091422FD099422DD0A1422BD0494529D024
:101DB000714527D0B94225D0DFF810C20CF1180CBC
:101DC00061451FD0DFF808C2ACF1600C614519D045
:101DD000DFF8FCC1ACF1480C614513D0DFF8F0C16D
:101DE000ACF1300C61450DD0DFF8E4C1ACF1180C5A
:101DF000614507D0594505D0514503D0A94201D0CE
:101E0000B1422CD1DFF8B4C14FF0040880F835801E
:101E1000ACF1180C61451DD091421BD0994219D0EC
:101E2000A14217D0494515D0714513D0B94211D000
:101E30006648183081420DD065486038814209D02B
:101E400063484838814205D061483038814201D02A
:101E50005F481838086820F001000860ABE0D1F84E
:101E600000C02CF00E08DFF854C1C1F80080ACF1BE
:101E7000180C0168614527D0914225D0994223D0A2
:101E8000A14221D049451FD071451DD0B9421BD078
:101E9000DFF838C10CF1180C614515D0DFF830C1FE
:101EA000ACF1600C61450FD0DFF824C1ACF1480CF7
:101EB000614509D0DFF818C1ACF1300C614503D0A1
:101EC000DFF80CC1ACF1180CD1F800C02CF0010CFB
:101ED000C1F800C0DFF8E4804FF0010C0168A8F100
:101EE0001808414546D0914244D0994242D0A1427F
:101EF00040D049453ED071453CD0B9423AD0334AF2
:101F00001832914236D0324A603A914232D0304A49
:101F1000483A91422ED02E4A303A91422AD02C4A49
:101F2000183A914226D0594524D0514522D0A94291
:101F300020D0B1421ED02A4A91421BD0284A1432E6
:101F4000914217D0264A2832914213D0244A3C327B
:101F500091420FD0224A503291420BD0204A643233
:101F6000914207D01E4A7832914203D01C4A8C32EB
:101F7000914218D1016E0A6822F480720A6090F8CA
:101F80005C20816D02F01F020CFA02F24A60D0E977
:101F900019124A60C16E31B10A6822F480720A6077
:101FA000D0E91C124A600022016D80F835C080F82B
:101FB000342001B188470020DCE600002800024000
:101FC000580002407000024088000240A000024019
:101FD0007004024088040240A0040240B804024099
:101FE000085402582DE9FC5F0446F74E0020DFF844
:101FF000D88300904FF41652F44808F11808A56DE4
:10200000DFF8C493DFF8C0A3016809F13009206844
:102010000AF1480AB1FBF2F1B04201912F68D5F8FC
:1020200000C0DFF8ACB335D04146884232D04845D5
:1020300030D050452ED058452CD0E5491831884233
:1020400028D0E3493031884224D0E14948318842E0
:1020500020D0E04988421DD0DE491831884219D08D
:10206000DC493031884215D0DA494831884211D0F4
:10207000DFF860E30EF1600E70450BD0D54A783280
:10208000904207D0D34B9033984203D0D149A83126
:1020900088427DD194F85C20082102F01F0201FAE9
:1020A00002F23A424AD0B04232D0404530D04845A0
:1020B0002ED050452CD058452AD0C54A18329042CF
:1020C00026D0C34A3032904222D0C14A4832904290
:1020D0001ED0C04A90421BD0BE4A1832904217D040
:1020E000BC4A3032904213D0BA4A483290420FD0A4
:1020F000B84A603290420BD0B64A7832904207D04C
:10210000B44A9032904203D0B24AA832904203D1EE
:10211000026802F0040202E0026802F008026AB1FA
:10212000026822F00402026094F85C0000F01F00D4
:102130008140A960606D40F00100606594F85C002A
:10214000012100F01F008140394240D02068B04298
:1021500034D0404532D0484530D050452ED0584537
:102160002CD09B4A1832904228D0994A3032904263
:1021700024D0974A4832904220D0964A90421DD0AF
:10218000944A1832904219D0924A3032904200E07C
:10219000AFE113D08F4A483290420FD08D4A60325F
:1021A00090420BD08B4A7832904207D0894A9032C5
:1021B000904203D0874AA83290427DD1406910F006
:1021C000800F04D0A960606D40F00200606594F853
:1021D0005C00042100F01F00814039423ED020689D
:1021E000B04232D0404530D048452ED050452CD05A
:1021F00058452AD0764A1832904226D0744A303256
:10220000904222D0724A483290421ED0714A904287
:102210001BD0704A1832904217D06E4A303290422A
:1022200013D06C4A483290420FD06A4A60329042D2
:102230000BD0684A7832904207D0664A903290427A
:1022400003D0644AA83290424ED1006810F0020FC9
:1022500004D0A960606D40F00400606594F85C00F3
:10226000102100F01F008140394258D02068B04250
:1022700034D0404532D0484530D050452ED0584516
:102280002CD0534A1832904228D0514A30329042D2
:1022900024D04F4A4832904220D04E4A90421DD01E
:1022A0004C4A1832904219D04A4A3032904215D0E6
:1022B000484A4832904200E014E00FD0454A60326C
:1022C00090420BD0434A7832904207D0414A903234
:1022D000904203D03F4AA832904207D1006800F0F4
:1022E000080006E0006872E70068B7E7006800F0E1
:1022F0000400A0B1A96020680168490304D5006802
:10230000000308D5A16C07E00168C90503D4016882
:1023100021F008010160216C09B12046884794F83A
:102320005C00202100F01F008140394279D02068F4
:10233000B04232D0404530D048452ED050452CD008
:1023400058452AD0224A1832904226D0204A3032AC
:10235000904222D01E4A483290421ED01D4A9042DE
:102360001BD01C4A1832904217D01A4A3032904281
:1023700013D0184A483290420FD0164A6032904229
:102380000BD0144A7832904207D0124A90329042D1
:1023900003D0104AA832904203D1006800F0100028
:1023A00002E0006800F00200B0B3A96094F83500C4
:1023B0000428206801680FD049037ED50068000317
:1023C0002BD4616C2AE00000100002403000002491
:1023D000700002401004024021F0160101602068E4
:1023E000416921F080014161206C08B9A06C20B1E5
:1023F0002068016821F00801016094F85C303F21F9
:10240000012003F01F0300229940A96084F83500E1
:1024100084F83420216D65E003E0E16B09B12046CA
:102420008847606D00287DD0606DC00759D0206856
:10243000042184F83510B0422BD0404529D04845BE
:1024400027D0504525D0584523D09D49884220D0DB
:102450009B49183188421CD099493031884218D0A4
:102460009849884215D097491831884211D095492A
:10247000303188420DD093494831884209D0914982
:102480006031884205D08F497831884201D08D492A
:102490009031016821F00101016020680099019AE2
:1024A000491C0091914202D80168C907F6D1006821
:1024B000C00710D003200FE0FFE70168C905ACD4C6
:1024C00003680121002223F01003036084F8351013
:1024D00084F83420A1E7012084F83500002084F836
:1024E0003400E16C00291DD002B02046BDE8F05F49
:1024F0000847754988421DD073491431884219D064
:1025000071492831884215D06F493C31884211D039
:102510006D49503188420DD06B496431884209D0F1
:10252000694900E084E07831884203D066498C3103
:1025300088427DD194F85C800427016808F01F0868
:1025400007FA08F717EA0C0F009746D04F0744D553
:1025500000980F04686003D5C8033CD4A16CC1E7A0
:10256000880638D42068B0422DD055496039884259
:1025700029D0484527D0504525D0584523D050492B
:10258000884220D04E49183188421CD04C49303105
:10259000884218D04B49884215D04A4918318842A0
:1025A00011D04849303188420DD0464948318842DF
:1025B00009D0704507D0904205D0984203D04149D8
:1025C000A831884203D1016821F0080102E00168C6
:1025D00021F004010160216C84E7022707FA08F763
:1025E00017EA0C0F00974ED08F074CD500980F04B8
:1025F000686003D5C80344D4616C73E7880640D48F
:102600002068B0422FD02E49603988422BD04845EF
:1026100029D0504527D0584525D02949884222D075
:102620002749183188421ED025493031884200E0C0
:1026300044E018D02349884215D0224918318842F5
:1026400011D02049303188420DD01E49483188428E
:1026500009D0704507D0904205D0984203D019495F
:10266000A831884203D1016821F0140102E0016819
:1026700021F00A010160012184F83510002084F85E
:102680003400E16B2EE7082202FA08F212EA0C0F7E
:1026900014D0090712D5016821F00E01016094F8E9
:1026A0005C100120002201F01F0100FA01F16960B5
:1026B000606584F8350084F8342012E7BDE8FC9F9B
:1026C0008800024010040240085402582DE9F05FCF
:1026D000044600F08BFB002C07467DD0E34E022120
:1026E00020684FF00308DFF888934FF00005DFF80B
:1026F00084A3B042DFF880B334D0DC4A1832904271
:1027000030D048452ED050452CD058452AD0DA4AF2
:102710001832904226D0D84A3032904222D0D64A3F
:10272000483290421ED0D54A90421BD0D34A18322C
:10273000904217D0D14A3032904213D0CF4A48321B
:1027400090420FD0CD4A603290420BD0CB4A7832C3
:10275000904207D0C94A9032904203D0C74AA8326B
:1027600090427DD184F83510B04284F834502ED098
:10277000BE49183188422AD0484528D0504526D035
:10278000584524D0BC491831884220D0BA4930314C
:1027900088421CD0B8494831884218D0B74988428D
:1027A00015D0B6491831884211D0B4493031884229
:1027B0000DD0B2494831884209D0B04960318842D1
:1027C00005D0AE497831884201D0AC4990310168DA
:1027D00021F00101016008E027E100BF00F006FBE5
:1027E000C01B052801D920211CE120680068C00712
:1027F000F4D104F108002168D4E9053C8E4685C86F
:1028000009681043D4E907281F43636A38439C4F83
:1028100040EA0C001043394040EA0800042B40EA2B
:10282000010003D1D4E90B1211430843954909680B
:102830006FF30F01B1F1005F0FD36168A1F12902BD
:10284000052A08D9163A032A05D9083A012A02D9D5
:102850004F39032901D840F48010CEF8000000E081
:1028600023E02068676A4069042F20F0070047EAE8
:1028700000070DD1D4E90A01074349B12046FEF70C
:102880002FFA28B140206065012184F83510CCE092
:10289000206847612046FEF741F994F85C203F210B
:1028A00002F01F029140816054E0774A90421BD0B1
:1028B000754B1433984217D0734B2833984213D07A
:1028C000714B3C3398420FD06F4B503398420BD032
:1028D0006D4B6433984207D06B4B7833984203D0EA
:1028E000694B8C3398427DD184F8351084F834508C
:1028F000664B0168A26801EA030E402A73D0802A61
:1029000072D00022D4E90378D4E9053142EAD70233
:1029100042EAD8085C4AD4E9077C48EAD30848EA86
:10292000D10141EAD701524241EA1C11142341EA84
:102930000E01016020681044B0FBF3F08000E065F8
:102940002046FEF7EBF894F85C20012102F01F020C
:10295000914041602068B04257D0444918318842C4
:1029600053D0484551D050454FD058454DD042499D
:102970001831884249D040493031884245D03E49DB
:102980004831884241D03D4988423ED03B491831C8
:1029900088423AD039493031884236D037494831B7
:1029A000884232D03549603188422ED0334978315F
:1029B00088422AD031499031884226D02F49A83107
:1029C000884222D0304988421FD02F491431884292
:1029D0001BD02D492831884217D02B493C318842E1
:1029E00013D002E01DE017E018E02749503188427B
:1029F0000BD025496431884207D023497831884279
:102A000003D021498C31884229D12046FEF7E0F8D5
:102A1000A06880280CD00CE0102273E74FF48042AD
:102A200070E74021616584F835800120BDE8F09FA2
:102A30006560216E20790860D4E919014160606801
:102A4000401E072808D82046FEF710F9E06E056002
:102A5000D4E91C01416002E0E56625676567012055
:102A6000656584F835000020E0E7000010000240B2
:102A70004000024058000240700002401004024032
:102A80003F8010FE0010005C085402580F00FEFF4B
:102A900070B5044600F0AAF90546601C02D004484F
:102AA0000078044400F0A2F9401BA042FAD370BDA4
:102AB00038000024F0B5B7B0142130A8FDF7B6FCFB
:102AC0002948016800294CD101260660C0216846CA
:102AD000FDF7ACFC3006069600214FF0C00C022436
:102AE0000D4604220F230A278DE89F0012946846A2
:102AF000CDE907C100F0F8FF08B1FEF741F91B4826
:102B0000016841F480510160006830A9032600F497
:102B1000805035900C274FF63F0081E8F1001448B3
:102B200000F03EF830A90D2081E8F100114800F0D6
:102B300037F830A948F2371081E8F1000E4800F06C
:102B40002FF830A94FF6837081E8F1000B4800F0B0
:102B500027F830A94CF2037081E8F100084800F032
:102B60001FF837B0F0BD000020000024D444025804
:102B700000140258000802580018025800100258A9
:102B8000000C025870474FF0B04110B5D1F88820C2
:102B9000024203D0C1F88800FFF7F4FF10BD000027
:102BA0002DE9F84F03247D4D00234FF001094FF02C
:102BB000B04B4FF00F0AE9E009FA03F73A4076D03C
:102BC0000E7906F00306012E01D0022E18D1D0F89E
:102BD00008C04FEA430ECE6804FA0EF82CEA080C3F
:102BE00006FA0EF646EA0C068660D0F804C00E79A6
:102BF0002CEA070CC6F300169E4046EA0C06466017
:102C00000E79F643B6070BD0C6684FEA43088F68C3
:102C100004FA08FC26EA0C0607FA08F73743C760EF
:102C20000E7906F00306022E12D1DE080F694FEA74
:102C3000437C00EB8606B646366A4FEADC6C0AFA3D
:102C40000CF807FA0CF726EA08063743CEF820708E
:102C50000F7906684FEA430807F0030704FA08FCF7
:102C600007FA08F726EA0C06374307604E6816F4A1
:102C7000403F1CD04A4E376847F00207376036683D
:102C80009F0706F00206009623F0030606F1B04601
:102C9000B6463F0FD6F80864DFF808810AFA07FC49
:102CA000404526EA0C0603D14FF0000C41E06CE0F1
:102CB000DFF8F4C0604502D14FF0010C39E0DFF8D5
:102CC000ECC0604502D14FF0020C32E0DFF8E0C00A
:102CD000604502D14FF0030C2BE0DFF8D8C060450F
:102CE00002D14FF0040C24E0DFF8CCC0604502D1E3
:102CF0004FF0050C1DE0DFF8C4C0604502D14FF075
:102D0000060C16E0DFF8B8C0604502D14FF0070CA2
:102D10000FE0DFF8B0C0604502D14FF0080C08E0CA
:102D2000DFF8A4C0604502D14FF0090C01E04FF07C
:102D30000A0C0CFA07FC4CEA060CCEF808C44F68E3
:102D4000DBF80060FF0226EA020600D516435F4664
:102D5000CBF80060D1F804C0DBF804605FEA8C2C8B
:102D600026EA020600D516437E606E684F6826EAA2
:102D70000206BF0300D516436E602E684F6826EA30
:102D80000206FF0300D516432E605B1C0A6832FA68
:102D900003F67FF411AFBDE8F88F00008000005803
:102DA000F444025800000258000402580008025877
:102DB000000C025800100258001402580018025863
:102DC000001C0258002002580024025800690840E4
:102DD00000D0012070470AB1816170470904FBE708
:102DE00001480068000C70470010005C01488068D2
:102DF00070470000380000240248816802781144BE
:102E00008160704738000024032010B500F0D2FA2A
:102E100001F0E2FC0F4A104914681368C4F303225E
:102E200003F00F038A5CC95C02F01F0201F01F016E
:102E3000D0400A4A20FA01F11160094908600F20C8
:102E400000F010F808B1012010BD00F073FA002066
:102E500010BD000018440258D09C00083400002423
:102E60003000002410B5102804468AB02AD200226F
:102E70000146192000F07EFA192000F06DFA15487D
:102E800004601548016841F001010160006808A96B
:102E900000F001000990684601F02AFC01F08AFC6C
:102EA0000E49400000220E4CB0FBF1F10D4840F2FB
:102EB000E7330460C0E90332491EC0E9011202F0A1
:102EC00001FB10B101200AB010BD064802F02CFB36
:102ED000F9E700003C000024F044025840420F0093
:102EE000000001407C0E002470B5040004D094F86A
:102EF0004D00002510B106E0012070BD204684F889
:102F00004C5000F03FF8022084F84D002068016B1F
:102F100041F0010101632068016821F001010160B5
:102F20002068016B21F07E0101632068016B41F490
:102F3000005101632068016B41F480410163206806
:102F4000816B41F0600181630D48E0634030C4E96A
:102F500010052046A56403F02FF84FF0010108B1D9
:102F60002165C9E72068426842F4807242602562A8
:102F7000656284F84D1025656565002070BD000010
:102F8000C49E00082DE9F84F334906460068884280
:102F900060D13248016841F02001016000680025DD
:102FA0002F4C80272F4A00F02000009012234FF072
:102FB00000794FF0040A04C4022204F1180084E8E6
:102FC000A800C4E90352656180E8A006A562201F3D
:102FD000E56225636563241F00F02EF908B1FDF753
:102FE000CFFE00221E48114600F03EF808B1FDF762
:102FF000C7FEDFF86C801421DFF868C0082208F1F2
:103000006C083463404626640CF1400C202340F8E1
:1030100004CB80E8A20000F11801C560C0E90452A9
:1030200081E828068562C56205634046C8F83850C5
:1030300000F002F908B1FDF7A3FE0948002211468D
:103040006C3000F011F808B1FDF79AFEC6F8348034
:10305000C8F84060BDE8F88F00300052D4440258F0
:103060006C0A00244000005230B54FF0000358B104
:1030700090F83C40012C09D090F83D50012480F894
:103080003C40012D04D015E0012030BD022030BDB0
:10309000046825696D000DD42163002901684A6325
:1030A00001680A6903D042F000420A6103E022F09D
:1030B0000042FAE70123002180F83C10184630BD99
:1030C0002DE9F8435B4B00264FF0A44204460096DE
:1030D000012500681F6812684FF4165CB7FBFCF707
:1030E00000F5F863C3F3841305FA03F10A427DD0B7
:1030F0000168C9072AD0C168890727D5C16821F0AE
:103100000201C160216888680206A26E02D442F002
:10311000010201E042F00202A266820503D5A26E1E
:1031200042F00402A266C20503D5A26E42F0080274
:10313000A266420503D5A26E42F01002A266000507
:1031400003D5A06E40F02000A0664D6020680168A5
:10315000C90608D5C168890605D510214160A16C52
:1031600009B12046884720680168090708D5C16869
:10317000C90605D508214160E16C09B120468847A0
:1031800020684FF004080168490708D5C16809079D
:1031900005D5C0F80480216D09B120468847206814
:1031A0000168890715D5C168490712D5C16821F0A2
:1031B0003E01C16094F83D00042828D02168022017
:1031C000486084F83C6084F83D50616C09B1204649
:1031D0008847A06E00282AD084F83D802068C16806
:1031E00021F00101C1602068009900E01FE0491C46
:1031F0000091B94202D8C168C907F5D184F83C6092
:10320000C068C00709D0032084F83D0007E0A16D25
:1032100084F83C6084F83D5002E084F83D50616DD4
:10322000002904D001B02046BDE8F0430847BDE8BE
:10323000F88300003000002470B50446FFF7D6FD87
:1032400006465CB1002584F83C50022084F83D001D
:103250002068C16821F00101C1600CE0012070BD4F
:10326000FFF7C4FD801B052805D94021A166032076
:1032700084F83D00F2E72068C068C007F0D120461E
:1032800002F0D0FFE565012025666566A56684F835
:103290003D00002070BD0000154BF0B5083B4278A2
:1032A00013491A600B680A1F23F001030B6043687F
:1032B0001360057BC67A827A437B2D07847B45EABF
:1032C0000665C77B90F809C0067A90F800E045EAE9
:1032D000C24040EA834040EA444040EA074040EAB6
:1032E0000C2040EA460040EA0E000860F0BD0000F5
:1032F000A0ED00E0BFF35F8F044800210368034A9C
:1033000023F48033036070321160704724ED00E0D5
:10331000074A40F00100064970321060086840F426
:1033200080300860BFF34F8FBFF36F8F704700008E
:1033300024ED00E0074882B0016841F0020101601D
:10334000006800220F2100F002000090901E02B0E1
:1033500000F010B8F4440258002809DB410900F0DD
:103360001F028900012001F1E0219040C1F8000115
:10337000704700000E4BF0B41B680D46C3F30223E8
:10338000C3F10706042E00D90426191D072901D20E
:10339000002300E0DB1E012404FA06F19C40491ED4
:1033A0002940641E994014402143F0BC04F024BB22
:1033B0000CED00E0064900F0070210B54FF6FF04DF
:1033C0000868044B204040EA02201843086010BD02
:1033D0000CED00E00000FA05134970B50A68D2430D
:1033E000520705D5096801F00701814213D118E0A1
:1033F0000A6822F0070202430A60FFF7F7FC0A4D51
:103400004FF47A760446083D07E000BFFFF7EEFC74
:10341000001BB04201D9012070BD2868C043800460
:10342000F4D4002070BD00000C48025810B501F023
:103430008DF905490968054AC1F30211515C01F093
:103440001F01C84010BD000020440258D09C000855
:103450004A4930B5494C0B1D0A680C3409681D688F
:10346000246802F0030305F00102C1F30511C4F35F
:10347000CC04002914FB02F200EE102AF8EE400AF8
:1034800076D0414A9FED3E1ADFED3E1AB7EE000AB4
:1034900023B1012B5AD0022B18D15CE0374C283CC9
:1034A00023689B0612D5394B246801EE901A1168E7
:1034B000C4F3C104F8EE612AE34001EE903AC1F38F
:1034C0000801F8EE611A81EEA22A07E002EE101A56
:1034D0001168F8EE422A81EEA22A45E001EE901A28
:1034E0001168F8EE611A40EE811A71EE800A62EE00
:1034F000200AC1F3462101EE101AB8EE411A31EE4E
:10350000001AC0EE811ABCEEE11A80ED001A1168B3
:10351000C1F3064101EE101AB8EE411A31EE001A5D
:10352000C0EE811ABCEEE11A80ED011A1168C1F3F8
:10353000066101EE101AB8EE411A31EE000A80EE73
:10354000801ABCEEC10A80ED020A30BD01EE901A6D
:10355000DFED0F2A03E001EE901ADFED0E2A11686D
:10356000F8EE611A82EEA12AC1F30801B6E7FFE77F
:10357000002101604160816030BD00002844025894
:10358000000000390024744C304402580090D003ED
:103590000024744A20BCBE4B494930B5484C0B1D31
:1035A0000A68143409681D68246802F00303C5F32F
:1035B0000012C1F30531C4F3CC04002914FB02F25C
:1035C00000EE102AF8EE400A75D03F4A9FED3D1AF2
:1035D000B7EE000A6BB1DFED3D1A012B01D0022BD3
:1035E00064D002EE101A1168F8EE422A81EEA22A87
:1035F00021E0334C283C23689B0612D5344B2468C9
:1036000001EE901A1168C4F3C104F8EE612AE34098
:1036100001EE903AC1F30801F8EE611A81EEA22A98
:103620000BE001EE901ADFED2B2A00BFF8EE611AD5
:10363000116882EEA12AC1F3080101EE901A116807
:10364000F8EE611A40EE811A71EE800A62EE200AED
:10365000C1F3462101EE101AB8EE411A31EE001AFC
:10366000C0EE811ABCEEE11A80ED001A1168C1F3B8
:10367000064101EE101AB8EE411A31EE001AC0EE02
:10368000811ABCEEE11A80ED011A1168C1F30661DE
:1036900001EE101AB8EE411A31EE000A80EE801ADF
:1036A000BCEEC10A80ED020A30BD04E001EE901AC2
:1036B000DFED092ABAE70021016041608160F3E78C
:1036C0002844025800000039384402580024744A43
:1036D0000090D0030024744C20BCBE4B494930B547
:1036E000484C0B1D0A681C3409681D68246802F0E8
:1036F0000303C5F30022C1F30551C4F3CC04002930
:1037000014FB02F200EE102AF8EE400A75D03F4A90
:103710009FED3D1AB7EE000A6BB1DFED3D1A012BAC
:1037200001D0022B64D002EE101A1168F8EE422A82
:1037300081EEA22A21E0334C283C23689B0612D557
:10374000344B246801EE901A1168C4F3C104F8EEFA
:10375000612AE34001EE903AC1F30801F8EE611AE4
:1037600081EEA22A0BE001EE901ADFED2B2A00BFBA
:10377000F8EE611A116882EEA12AC1F3080101EE88
:10378000901A1168F8EE611A40EE811A71EE800A03
:1037900062EE200AC1F3462101EE101AB8EE411A7A
:1037A00031EE001AC0EE811ABCEEE11A80ED001A6B
:1037B0001168C1F3064101EE101AB8EE411A31EE5C
:1037C000001AC0EE811ABCEEE11A80ED011A1168F0
:1037D000C1F3066101EE101AB8EE411A31EE000A8B
:1037E00080EE801ABCEEC10A80ED020A30BD04E012
:1037F00001EE901ADFED092ABAE70021016041606D
:103800008160F3E728440258000000394044025820
:103810000024744A0090D0030024744C20BCBE4B9A
:103820002DE9F04FAC4A0546DFF8A8A280F480707D
:10383000DFF8AC9289B01311AA4C0843A748AAF14B
:1038400004064FF0805C4FF000582CD085F40077D0
:103850000F4357D0DFF87CB285F480670F430BF13C
:10386000080B61D085F400670F4374D085F480574E
:103870000F436ED085F400570F434FF480394FF457
:10388000003E67D085F400270F4371D085F4803760
:103890000F436ED085F480460E436BD085F4004212
:1038A0000A4368D02AE0DAF8001001F00701052980
:1038B00024D2DFE801F075BC7D25B10006A8FFF732
:1038C000C7FD079809B0BDE8F08F6846FFF764FEB2
:1038D0000098F7E703A8FFF701FF0398F2E72068D5
:1038E000C0F3C10022FA00F0ECE72268D20571D5DE
:1038F00061456FD11846E5E74145E3D00020E1E797
:103900004846DFE7DAF8001001F4E07180294FD073
:1039100004DC002944D04029F0D188E0C029EFD050
:10392000B1F5807FEAD177E0DBF8001001F46001A7
:10393000B1F5800F3CD004DC91B3B1F5001FDDD1AF
:1039400075E0B1F5C00FDBD0B1F5000FD6D163E063
:1039500001E018E030E0DBF8001001F0E061B1F1C7
:10396000007F25D008DCD9B1B1F1807FC6D15EE0FF
:1039700049E06CE079E09CE0B1F1407FC0D0B1F16A
:10398000806FBBD148E0DAF8001001F4E041B1F5F6
:10399000005F0DD005DC19B1B1F5805FAED146E016
:1039A00094E0B1F5405FABD0B1F5804FA6D133E0E4
:1039B00020688000A2D58DE7DAF8001001F4E0213C
:1039C000B1F5403F6CD006DC61B149457AD0714514
:1039D00094D157E037E0B1F5802F65D0B1F5A02F35
:1039E0008CD10CE000F0D4FE6CE76846FFF7D4FD04
:1039F000019867E703A8FFF771FE049862E7216862
:103A00008903F1D47AE7DBF8001011F440310ED0CD
:103A1000494510D07145F5D13168256801F0405114
:103A20006D077FF562AF00297FF45FAF57E720682D
:103A30000001E7D549E720688000E3D503A8FFF738
:103A40004DFE05983EE722689203DBD554E73068C7
:103A500010F480303AD04845D4D120680001D1D547
:103A60006846FFF799FD02982CE7DBF8001001F09B
:103A7000E041B1F1405F13D008DC71B1614521D064
:103A80004145BFD120688000B4D437E7B1F1804F01
:103A90000AD0B1F1A04FB2D030E7FFF7C7FC11E771
:103AA00020684007AED51AE72068C005AAD521E7EF
:103AB00008E0DAF8001011F04051A0D0614505D0BF
:103AC00041459FD1206800018FD417E7206880010D
:103AD00098D5F3E6504402580090D00340787D0119
:103AE0000080BB00004402582DE9FE4F0546DFF878
:103AF000E48350F8081B0024F64FC943019005F1F8
:103B00002800264608F12408009008011DD4A86E5C
:103B100050B1B0F5801F0CD0B0F5001F0ED0B0F53D
:103B2000401F1ED001240FE0386840F40030386098
:103B300017E00198022102F019FF03E0009802212A
:103B400002F0A4FF04000CD026462888C043C0051C
:103B500023D4A86D05281ED2DFE800F00C11161B37
:103B60001B00AA6ED8F8001021F440111143C8F8C8
:103B70000010EAE7386840F40030386009E0019846
:103B8000002102F0F3FE03E00098002102F07EFF26
:103B9000044674B100E0012426462888C04380050D
:103BA00028D4E86D80281ED00CDC90B140280ED1BE
:103BB00014E0AA6DD8F8001021F007011143C8F8ED
:103BC0000010EAE7C02813D0B0F5807F10D00124A0
:103BD0000FE0386840F40030386009E001980021B7
:103BE00002F0C4FE03E00098002102F04FFF0446FB
:103BF0009CB126462888DFF8DC92C04309F12C09E5
:103C000040052CD4D5F8A800B0F5800F20D00DDCED
:103C1000A0B1B0F5001F0FD115E0EA6DD8F8001083
:103C200021F4E0711143C8F80010E3E7B0F5C00FCC
:103C300013D0B0F5000F10D001240FE0386840F425
:103C40000030386009E00198002102F08FFE03E0A7
:103C50000098002102F01AFF04467CB1264628880D
:103C6000C04300052DD4D5F8AC00B0F1007F21D0C1
:103C70000EDCA8B1B0F1807F10D116E0D5F8A820F5
:103C8000D9F8001021F460011143C9F80010E6E7EB
:103C9000B0F1407F13D0B0F1806F10D001240FE05D
:103CA000386840F40030386009E00198002102F0E3
:103CB0005DFE03E00098002102F0E8FE044674B1C6
:103CC00026462868C04380011FD4E86CD8B110286C
:103CD0000FD0202812D0302815D0012414E0D5F8B8
:103CE000AC20D9F8001021F0E0611143C9F80010B0
:103CF000E7E7386840F40030386004E001980221BA
:103D000002F034FE044674B126462888C043C0043D
:103D10002BD4286EB0F5005F20D00DDCA0B1B0F53B
:103D2000805F0FD115E06B48EA6C2030016821F00C
:103D3000300111430160E8E7B0F5405F13D0B0F502
:103D4000804F10D001240FE0386840F40030386014
:103D500009E00198002102F009FE03E0009800212B
:103D600002F094FE04468CB126462888C0438004A5
:103D700029D4686EB0F5403F23D010DC08B3B0F50D
:103D8000803F14D0B0F5003F0FD115E02A6ED8F86F
:103D9000001021F4E0411143C8F80010E5E7B0F548
:103DA000802F0ED0B0F5A02F0BD001240AE001988F
:103DB000012102F0DBFD03E00098012102F066FE24
:103DC000044694B126462888C04340042AD4D5F836
:103DD000B000B0F1405F23D010DC08B3B0F1805FD9
:103DE00014D0B0F1005F0FD115E06A6ED8F8001062
:103DF00021F4E0211143C8F80010E4E7B0F1804F4E
:103E00000ED0B0F1A04F0BD001240AE0019801219F
:103E100002F0ACFD03E00098012102F037FE0446F9
:103E200074B126462888C04300041FD4286FD8B137
:103E3000B0F1805F0ED0B0F1005F10D0012414E02B
:103E4000D5F8B020D9F8001021F0E0411143C9F8AD
:103E50000010E7E7386840F40030386004E001986B
:103E6000012102F083FD044674B126462868C04350
:103E7000C0011ED4A86CD0B101280ED0022811D0E8
:103E8000032814D0012413E02A6FD8F8001021F081
:103E900040511143C8F80010E8E7386840F400309A
:103EA000386004E00198022102F060FD0446ACB1E4
:103EB00026462868DFF81CB0C043ABF11C0B40025B
:103EC00052D40548016841F480710160FEF78EFF0D
:103ED000824611E02C44025800480258FA48AA6C65
:103EE000016821F0030111430160E2E7FEF77EFF64
:103EF000A0EB0A00642835D8F4480068C005F5D561
:103F00008CBBDFF8C4A3B5F8B4100AF1240ADAF8C0
:103F1000000001F4407100F44070884211D0DAF8DA
:103F20000010DAF8002021F4407142F48032CAF81F
:103F30000020DAF8002022F48032CAF80020CAF803
:103F40000010D5F8B400B0F5807F1AD1FEF74EFF0F
:103F5000029012E0FEF74AFF0299411A41F28830BE
:103F600081420AD9032426462878DFF85CA3C0439F
:103F70000AF1080AC00721D03CE0DAF80000800707
:103F8000E8D5D5F8B410C1F30120032858460DD068
:103F9000016821F47C510160B5F8B420DAF8001012
:103FA000C2F30B021143CAF80010DDE7C84A0368E8
:103FB00002EA111223F47C511143ECE7E86F182850
:103FC00016D005DCA0B1082808D0102804D10AE0DA
:103FD00020280DD028280BD001240AE001980121C7
:103FE00002F0C4FC03E00098012102F04FFD0446FA
:103FF00064B126462878C04380071ED4A86F0628DF
:1040000019D2DFE800F0160C11161616EA6FDAF86E
:10401000001021F038011143CAF80010EAE70198B6
:10402000012102F0A3FC03E00098012102F02EFD23
:1040300004467CB100E0012426462878C0434007AE
:104040001FD4D5F89400062819D2DFE800F0160C2A
:1040500011161616AA6FDAF8001021F007011143A5
:10406000CAF80010E9E70198012102F07FFC03E0A3
:104070000098012102F00AFD0446A4B100E00124E9
:1040800026462878C04380062BD4D5F89000B0F19E
:10409000405F24D011DC10B3B0F1805F15D0B0F1D7
:1040A000005F10D116E0D5F89420D9F8001021F067
:1040B00007011143C9F80010E3E7B0F1804F0ED0BB
:1040C000B0F1A04F0BD001240AE00198002102F0CA
:1040D0004DFC03E00098022102F0D8FC044694B1A4
:1040E00026462878C04340062BD4D5F89C00B0F56E
:1040F000406F24D011DC10B3B0F5806F15D0B0F54F
:10410000006F10D116E0D5F89020DAF8001021F0F9
:10411000E0411143CAF80010E3E7B0F5805F0ED02C
:10412000B0F5A05F0BD001240AE00198002102F055
:104130001DFC03E00098022102F0A8FC044694B1A3
:1041400026462878C04300062BD4D5F8A000B0F549
:10415000C04F24D011DC10B3B0F5005F15D0B0F51E
:10416000804F10D116E0D5F89C20D9F8001021F42A
:10417000E0511143C9F80010E3E7B0F5004F0ED04D
:10418000B0F5204F0BD001240AE00198002102F085
:10419000EDFB03E00098022102F078FC044654B1E4
:1041A00026462878C04300071ED4D5F88400B0F511
:1041B000805F0AD00FE0D5F8A020D9F8001021F4D4
:1041C00060411143C9F80010EBE70098022102F0AA
:1041D0005DFC00B10126D5F88420DAF8001021F446
:1041E00040511143CAF800102878C043C00613D4C8
:1041F000D5F89800B0F5807F05D10098022102F033
:1042000045FC00B10126D5F89820D9F8001021F41A
:1042100040711143C9F800102868C043000316D448
:10422000D5F8A40038B1B0F5803F09D0B0F5003F13
:104230000BD001240AE00198002102F097FB03E073
:104240000098022102F022FC04468CB12646286820
:10425000C043400322D4D5F88800B0F5801F11D0A8
:10426000B0F5001F13D0B0F5401F15D0012414E0A5
:10427000D5F8A420D9F8001021F440311143C9F831
:104280000010E4E7386840F40030386004E000983B
:10429000012102F0FBFB04465CB126462868C043BE
:1042A000C00323D4286DA8B1B0F5803F17D00124F6
:1042B0001BE0D5F88820DAF8001021F440111143F2
:1042C000CAF80010EAE700004C44025800480258BF
:1042D000CFFFFF00386840F40030386004E00198F8
:1042E000022102F043FB0446E4B126462868C0439D
:1042F000800005D40098022102F0C8FB00B101261D
:104300002868C04380031BD4D5F88000B0B1B0F555
:10431000807F0FD0B0F5007F10D0B0F5407F0DD07A
:1043200001240CE05A482A6D016821F480311143C0
:104330000160DBE7386840F400303860ECB32646B3
:104340002868C043C00207D46A6FD8F8001021F073
:1043500000411143C8F800102868C043C00008D4C9
:10436000D5F8B820DBF8001021F480411143CBF8D8
:1043700000102868C043800207D4EA6ED8F8001005
:1043800021F080711143C8F800102868C043400034
:104390000CD4DBF8001021F40041CBF80010DBF85E
:1043A0000010D5F8BC201143CBF800102868C0439A
:1043B00008D437486A6D016800E018E021F04051E8
:1043C000114301602868C043000208D4D5F88C204E
:1043D000DAF8001021F440011143CAF800102879DE
:1043E0000024C04300F0010020430AD00FE0D5F8BC
:1043F0008020DAF8001021F440711143CAF800104F
:104400009EE70198002102F0B1FA00B10646287932
:10441000C04300F00200204305D10198012102F0C1
:10442000A5FA00B106462879C04300F004002043F5
:1044300005D10198022102F099FA00B106462879C7
:10444000C04300F00800204305D10098002102F08D
:104450001DFB00B106462879C04300F01000204340
:1044600005D10098012102F011FB00B10646287920
:10447000C04300F02000044304D10098022102F060
:1044800005FB00B916B10120BDE8FE8F0020FBE757
:104490004C4402582DE9F05F04000F467ED0DFF84F
:1044A0003882D8F8000000F00F00B8420CD2D8F8DB
:1044B000001021F00F013943C8F80010D8F80000AF
:1044C00000F00F00B84269D12078844D40070AD52A
:1044D0002069296801F07001884204D9296821F017
:1044E00070010143296020787C4E361D00070AD5F3
:1044F0006069316801F07001884204D9316821F0A7
:104500007001014331602078C0060AD5A069316886
:1045100001F4E061884204D9316821F4E06101438B
:1045200031602078DFF8B4B180060BF1080B0CD5B0
:10453000E1695846DBF8002002F07002914204D98C
:10454000026822F070020A430260207880070AD5D0
:10455000E068296801F00F01884204D9296821F038
:104560000F01014329602078C0073ED05B49A26853
:104570002868183920F470601043286060680228A9
:1045800018D0032819D00968012819D04907002933
:104590004ADADFF848A1AAF1080A00E044E0DAF8B4
:1045A000002022F007020243CAF80020FEF71EFC9A
:1045B000814612E009688903E9E709688901E6E7AD
:1045C000C905E4E7FEF712FCA0EB090141F28830CF
:1045D000814202D90320BDE8F09F6168DAF800004B
:1045E00000F03800B0EBC10FECD1207880070AD57D
:1045F000E068296801F00F01884204D2296821F09F
:104600000F0101432960D8F80010404601F00F0166
:10461000B9420BD9016821F00F01394301600068EC
:1046200000F00F00B84201D00120D4E72078400705
:104630000AD52069296801F07001884204D22968EE
:1046400021F0700101432960207800070AD56069D4
:10465000316801F07001884204D2316821F07001A4
:10466000014331602078C0060AD5A069316801F4A1
:10467000E061884204D2316821F4E0610143316095
:10468000207880060CD5E1695846DBF8002002F05E
:104690007002914204D2026822F070020A43026062
:1046A00000F09AF80E492A682B68C2F3032203F03F
:1046B0000F038A5CC95C02F01F0201F01F01D040A9
:1046C000084A20FA01F111600749086007480068AC
:1046D000BDE8F05FFEF7C6BB002000521844025848
:1046E000D09C000834000024300000243C0000244A
:1046F00070B5144C3F220260124A24680832131D20
:10470000114D04F00704446016681C1D06F4706621
:104710008660166806F00F06C660126802F0700226
:1047200002611A6802F0700242611A6802F4E062E3
:104730008261226802F07002C261286800F00F00F6
:10474000086070BD104402580020005230B500F0DF
:1047500043F80B4A0B490C4B15681468C5F3032248
:1047600004F00F048A5C095D02F01F0201F01F01D2
:10477000D040064A20FA01F119601060084630BDA9
:1047800018440258D09C0008340000243000002453
:1047900000B5FFF7DBFF05490968054AC1F30211BF
:1047A000515C01F01F01C84000BD00001C440258CC
:1047B000D09C000800B5FFF7C9FF05490968054A04
:1047C000C1F30221515C01F01F01C84000BD00008F
:1047D0001C440258D09C0008454970B545480968FA
:1047E000434B103B11F0380208D00111082A03D0C6
:1047F000102A0BD0182A0BD0084670BD19688906FC
:10480000FBD51968C1F3C101C84070BD3A4870BDFD
:104810003749374D18310C1D24350A680968266858
:104820002D6802F0030406F00102C1F30511C5F37F
:10483000CC0515FB02F200EE102AB8EE400AE9B3EF
:104840002F4ADFED2E0AB7EE001A6CB1DFED2D1AFC
:10485000012C01D0022C43D002EE101A1068F8EEA1
:10486000422A81EEA22A1EE01C68A40611D51B680C
:1048700001EE901A1168C3F3C103F8EE612AD84023
:1048800001EE900AC1F30800F8EE611A81EEA22A47
:104890000BE001EE901ADFED1C2A00BFF8EE611A62
:1048A000106882EEA12AC0F3080001EE900AF8EE2B
:1048B000611A40EE201A31EE810A00E015E022EE86
:1048C000000A1068C0F34620401C00EE900AF8EE83
:1048D000600A80EE201ABCEEC10A10EE100A70BD0C
:1048E00001EE901ADFED092AD8E7002070BD000024
:1048F000104402580090D00340787D010000003938
:10490000304402580024744A0024744C20BCBE4B2E
:104910002DE9F05F04007DD0FF4F2078FE4D183761
:10492000DFF8F493103DC00748D0D9F8000039688B
:1049300000F03800102815D0182803D101F003002A
:1049400002280FD06068B0F5803F12D010B1B0F5EA
:10495000A02F18D0286820F480302860286820F420
:10496000802009E02868800328D560680028D2D01C
:1049700024E0286840F480302860606888B1FEF741
:1049800035FA064609E0286840F480202860F0E700
:10499000FEF72CFA801B64286FD828688003F7D5AF
:1049A0000CE0FEF723FA064605E000BFFEF71EFA0C
:1049B000801B6428F0D828688003F7D4207841F25F
:1049C0000308D54E0C3E800769D5D9F80000396838
:1049D00010F038000ED0182801D188070AD0E068FE
:1049E00090B3296821F0190101432960FEF7FEF90F
:1049F000824631E02868400702D5E06800288AD066
:104A0000E168286820F0190008432860FEF7EEF9F5
:104A1000824607E0DFE000BFFEF7E8F9A0EB0A00FE
:104A20000228B9D828684007F6D500BFFEF7D8F9A4
:104A300040451BD82069402812D0316821F47C31D0
:104A400041EA003030602AE018E000BFFEF7CEF9FE
:104A5000A0EB0A0002289FD828684007F6D5E5E7B2
:104A6000306820F47C3040F40030EBE7207C316883
:104A700021F0FE4141EA0060E4E70DE1286820F002
:104A800001002860FEF7B2F9824605E0FEF7AEF9B4
:104A9000A0EB0A0002288DD828684007F6D42078B9
:104AA000C0065DD5D9F80000DFF86CB2396800F0B7
:104AB0003800ABF1040B082810D0182803D101F0FE
:104AC000030001280AD0E0690028286838D040F0A7
:104AD00080002860FEF78AF9824623E02868C00536
:104AE00023D5E069802876D11FE0206A202821D0D4
:104AF000316821F0F84141EA8060306030E000BF69
:104B000094F82010DBF8002022F07C5242EA016188
:104B1000CBF8001024E000BFFEF768F9A0EB0A0014
:104B2000022898D82868C005F6D5FEF759F94045FF
:104B3000E6D8DAE7306820F0F84040F08040DCE763
:104B400020F080002860FEF751F9064605E000BF1E
:104B5000FEF74CF9801B02289DD82868C005F7D4C1
:104B60002078000729D56C486169643000298046A7
:104B7000016811D041F001010160FEF737F90646E6
:104B800005E000BFFEF732F9801B0228C9D8D8F82B
:104B900000008007F6D510E021F001010160FEF76A
:104BA00025F9064605E000BFFEF720F9801B022824
:104BB00072D8D8F800008007F6D42078800623D574
:104BC000A0690028286810D040F480502860FEF7C3
:104BD0000DF9064605E036E1FEF708F9801B0228CC
:104BE0005AD828688004F7D50EE020F48050286059
:104BF000FEF7FCF8064604E0FEF7F8F8801B0228F2
:104C00004AD828688004F7D4207840074FD5DFF8C9
:104C10000C81D8F8001041F48071C8F80010FEF73C
:104C2000E5F8064605E000BFFEF7E0F8801B6428C3
:104C300032D8D8F80000C005F6D5374EA0686036E7
:104C400001280AD008B1052813D0306820F00100EF
:104C50003060306820F0040002E0306840F001006D
:104C60003060A06841F2883A90B1FEF7BFF8804604
:104C70000AE0306840F004003060EEE7FEF7B6F876
:104C8000A0EB0801514507D830688007F6D50EE043
:104C9000FEF7ACF8804607E084E000BFFEF7A6F818
:104CA000A0EB080151457DD830688007F6D4606AD2
:104CB000B0B3DFF86480D9F8001008F120084FF68F
:104CC000F87B08F10409C1F3C2010329A8F1040A21
:104CD00069D00228286820F08070286003D0FEF791
:104CE00085F8044684E0FEF781F8064605E000BF3B
:104CF000FEF77CF8801B022877D828688001F7D45B
:104D0000E26A40F2F331386854F8283F884340EAB9
:104D100002101843386004E010440258004802585A
:104D2000B5E0217B434622894FF4FE0C208A4FF0E8
:104D3000FE474902267D521E401EA1F50071C2F3B6
:104D400008088AB2761E0CEA004042EA08020243D2
:104D5000504607EA06610A431A60DAF8002022F09A
:104D60000102CAF80020D9F80020266A22EA0B02C4
:104D700042EAC602C9F80020DAF80010A26921F060
:104D80000C011143CAF800100168E26921F0020128
:104D900011430160016841F480310160016841F410
:104DA000003101E021E027E00160016841F4802149
:104DB0000160016841F001010160286840F08070E5
:104DC0002860FEF713F8044605E000BFFEF70EF872
:104DD000001B022809D828688001F7D557E000BFDA
:104DE000FEF704F8001B022802D90320BDE8F09F5B
:104DF00028688001F4D44AE039680128D8F8000016
:104E000021D0A26A01F0030393421CD1E26AC1F3EC
:104E100005118A4217D1216BC0F30802491E8A424C
:104E200011D1616BC0F34622491E91420BD1A16B97
:104E3000C0F30642491E914205D1E16BC0F3066002
:104E4000491E814201D00120D0E7A16C4E46D9F81D
:104E50000000C0F3CC00814219D0DAF800005546BA
:104E600020F00100CAF80000FDF7C0FF4FEA00077C
:104E7000FDF7BCFFB842FBD0A26C306820EA0B0003
:104E800040EAC2003060286840F00100286000203D
:104E9000ACE7000070B504000D4603D094F82C0078
:104EA00010B107E0012070BD002084F82D002046DD
:104EB00000F018F8022084F82C002068211DFBF770
:104EC0006FFFD4E900022946FBF7BCFF044801212B
:104ED000026842F00042026084F82C10002070BD8D
:104EE00000400052FDF7E6BD10B5044690F82C00D6
:104EF000022804D094F82C00012801D0012010BD14
:104F0000022084F82C002068FBF77FFF012084F842
:104F10002C00002010BD000070B5044690F82C0055
:104F20000D46022804D0012803D0052801D0012015
:104F300070BD022084F82C002068FBF76FFF286802
:104F4000022805D05FF0010084F82C00002070BD1D
:104F50000520F9E7704700002DE9F0470446006896
:104F6000002103694269876894F8816000F1300983
:104F70005FEA025C03EA02050AD51A0708D58169CF
:104F800041F400618161204600F043FABDE8F087FA
:104F900015F0600F08D1680706D5616F2046884775
:104FA000216F20468847012105F04100012805D1E5
:104FB000680703D4216F20468847012105F02200AD
:104FC000022806D1680704D4616F2046BDE8F04787
:104FD00008470029DAD128074FF001085BD520687F
:104FE000816941F0080181612068816941F0100107
:104FF00081612068816941F40061816120680169F3
:1050000021F0080101612068806810F4404F20D031
:1050100023E0E0680F2806D92068616E006B086005
:10502000606E001D0FE0072806D9B9F80000616E18
:105030000880606E801C06E02068616E90F8300089
:105040000870606E401C6066B4F86A00401EA4F8E8
:105050006A00B4F86A000028DBD1204601F0FAFDAE
:1050600084F88180D4F8840018B12046FFF772FFDD
:105070008CE7052E07D0042E09D0032E86D12046BA
:1050800000F0C8F982E7204600F0C5F97EE7204627
:1050900000F0BEF97AE715F4587FE9D068060AD522
:1050A000D4F8840040F00400C4F8840020688169CA
:1050B00041F040018161A8050AD5D4F8840040F090
:1050C0000100C4F884002068816941F400718161A5
:1050D000E8050AD5D4F8840040F00800C4F884003C
:1050E0002068816941F480718161A8060AD5D4F8ED
:1050F000840040F08000C4F884002068816941F099
:1051000020018161D4F884000028B1D0206840F2E9
:105110006B32C7F381310368032923F00101016079
:105120002068016921EA0201016102D084F88180CE
:105130009BE72068104D816821F440418160E06F59
:1051400050B10565E06FFCF70BFE28B1D4F8840080
:1051500040F04000C4F88400A06F002888D00565A6
:10516000A06FFCF7FDFD00288CD0D4F8840040F03F
:105170004000C4F8840009E7116D00082DE9F047EC
:10518000040029D0594A4FF000092068584B594D66
:105190009042C4F8289006D0984204D0A84202D089
:1051A000E1680F2918D8E1684FF0010AE76B083170
:1051B000C9080AEB57167143904205D0984203D0B4
:1051C000A84201D0082907D8904203D0984201D0C4
:1051D000A84204D1102902D90120BDE8F08794F833
:1051E000810020B9204684F8809000F085F80220E4
:1051F00084F881002068016821F0010101602068C5
:10520000A1698268B1F1806F02F4F81110D162686F
:10521000B2F5800F01D01AB10AE0A26B22B107E00B
:10522000A26BB2F1805F03D1026842F48052026047
:105230006068400209D5E068072806D32068236D1E
:10524000026822F480721A4303E02068026822F4A4
:1052500080720260A66AE069E26B25683043E36809
:105260000A4310431843A860D4E90D02D4E905812C
:10527000636A25691843D4F820C00A43266810439E
:105280002843A56DD4E90172D4E9123140EA08003F
:1052900040EA0C0038430843104318432843F060A9
:1052A000606868B92068816821F4C05141F40061E8
:1052B00081602068816821F4C06141F4806181606F
:1052C0002068016D21F0010101656068400206D58A
:1052D0002068626DC16821F000411143C160C4F8CB
:1052E000849084F881A0002077E70000003001401E
:1052F00000380040003C0040F0B5B7B0064614212D
:1053000030A8FBF793F8C0216846FBF78FF83949BE
:10531000306888426BD18114002018900546CDE991
:1053200000106846FEF7E0FB08B1FBF729FD3248A4
:10533000016841F480510160006800F480503590AC
:105340002D481038016841F001010160016801F049
:1053500001013591016841F008010160016801F027
:1053600008013591016841F040010160006830A9F1
:10537000022400F0400035902020052781E831000C
:105380001E48CDE93357FDF70BFC30A9802081E89A
:1053900031001B48CDE93357FDF702FC30A920024C
:1053A00081E831001748CDE93357FDF7F9FB164C7A
:1053B0002621164840224FF4005C84E82700C714D9
:1053C000C4E906C50315256265622046C4E90437B1
:1053D000FDF77CF908B1FBF7D3FCB4670022052187
:1053E000A6632320FDF7C6FF2320FDF7B5FF37B0E6
:1053F000F0BD000000300140F044025800000258A7
:10540000000C025800180258CC0B0024280002405F
:10541000704770477047704770477047704700008B
:10542000F0B590F83C20012A3BD01F4E012480F8B3
:105430003C40022280F83D2002681C4D5368B24275
:10544000D2F808C001D0AA4203D14F6823F47003F8
:105450003B430F6823F070031F4357600268B2425A
:1054600013D0B2F1804F10D0114B9A420DD0114B96
:105470009A420AD0104B9A4207D0AA4205D00F4B4D
:105480009A4202D00E4B9A4204D189682CF08003D4
:1054900019439160002180F83D4080F83C10084697
:1054A000F0BD0220F0BD00000000014000040140FA
:1054B0000004004000080040000C004000180040BC
:1054C0000040014010B5040003D094F83D0010B135
:1054D00007E0012010BD002084F83C00204600F0C9
:1054E00022F8022084F83D002068211D01F03EFDD5
:1054F000012084F8480084F83E0084F83F0084F8D6
:10550000400084F8410084F8420084F8430084F8A5
:10551000440084F8450084F8460084F8470084F885
:105520003D00002010BD704790F83D10012901D0CA
:1055300001207047174A022180F83D100168CB68AE
:1055400043F00103CB600068904214D0B0F1804F6B
:1055500011D0114988420ED0104988420BD0104911
:10556000884208D00F49884205D00F49884202D0AE
:105570000E49884207D181680D4A1140062906D09C
:10558000B1F5803F03D0016841F0010101600020C6
:105590007047000000000140000400400008004087
:1055A000000C004000040140001800400040014091
:1055B0000700010070472DE9F0410446006800270C
:1055C000C6680569A90713D5B10711D5FA1E02618E
:1055D00001212177206880698007204602D0FFF7EB
:1055E000E9FF04E000F0CEF8204600F0AFF927779D
:1055F000680716D5700714D5226802206FF00401E1
:10560000116120772068806910F4407F204602D025
:10561000FFF7D0FF04E000F0B5F8204600F096F95F
:105620002777280715D5300713D5226804206FF097
:105630000801116120772068C0698007204602D0E8
:10564000FFF7B8FF04E000F09DF8204600F07EF977
:105650002777E80616D5F00614D5226808206FF0E3
:105660001001116120772068C06910F4407F204646
:1056700002D0FFF79FFF04E000F084F8204600F01E
:1056800065F92777E80708D0F00706D021686FF0A2
:1056900001000861204600F0E3F9280601D4A804BF
:1056A00008D5300606D521686FF4025008612046FF
:1056B000FFF7B3FEE80508D5300606D521686FF47C
:1056C000807008612046FFF7A7FE680608D57006BF
:1056D00006D521686FF040000861204600F0CAF945
:1056E000A8060AD5B00608D521686FF02000086129
:1056F0002046BDE8F041FFF791BEBDE8F081000013
:1057000010B586B0044614216846FAF78FFE184A91
:1057100000202368174993424FF0020210D10B6812
:1057200043F002030B60096801F0020105910121B9
:105730000091CDE90120CDE903020F48694613E04D
:105740000E4CA34212D10B6843F008030B600968AA
:1057500001F0080105914FF440510091CDE901207D
:10576000CDE9030206486946FDF71AFA06B010BDF6
:1057700000040040E04402580004025800080040C1
:10578000000C0258704770B5044690F83C000026A3
:105790000D4601280BD0012084F83C000C2A4AD089
:1057A00007DC82B1042A20D0082A06D131E0022089
:1057B00070BD102A53D0142A63D00126002084F82B
:1057C0003C00304670BD206801F044FC20688169CF
:1057D00041F0080181612068816921F00401816143
:1057E00020682A698169114311E0206801F084FC76
:1057F0002068816941F4006181612068816921F438
:105800008061816120682969826942EA01218161A0
:10581000D4E7206801F0BCFC2068C16941F00801B0
:10582000C1612068C16921F00401C16120682A6951
:10583000C169114311E0206801F0F6FC2068C169DC
:1058400041F40061C1612068C16921F48061C161D6
:1058500020682969C26942EA0121C161AEE7206876
:1058600001F01EFD2068416D41F00801416520688E
:10587000416D21F00401416520682A69416D1143A1
:1058800011E0206801F046FD2068416D41F400619F
:1058900041652068416D21F4806141652068296976
:1058A000426D42EA0121416588E710B5040003D04A
:1058B00094F83D0010B107E0012010BD002084F8ED
:1058C0003C00204600F022F8022084F83D002068C9
:1058D000211D01F04BFB012084F8480084F83E00B4
:1058E00084F83F0084F8400084F8410084F84200C6
:1058F00084F8430084F8440084F8450084F84600A6
:1059000084F8470084F83D00002010BD08B50C4A1B
:1059100001680C48914207D1016841F00201016021
:10592000006800F0020009E0074A914207D10168CF
:1059300041F004010160006800F00400009008BD1F
:1059400000040040E844025800080040704700008E
:1059500030B504464FF0020269B1042912D008297B
:1059600017D00C291CD0102921D094F8430001280D
:1059700024D0012030BD94F83E000128F9D184F8EC
:105980003E201DE094F83F000128F2D184F83F202A
:1059900016E094F840000128EBD184F840200FE095
:1059A00094F841000128E4D184F8412008E094F8FB
:1059B00042000128DDD184F8422001E084F8432030
:1059C0000122206801F038FB1B4B20681B491C4A50
:1059D000984209D0884207D0904205D0194DA8427C
:1059E00002D0194DA84203D1456C45F400454564E9
:1059F0002068984212D0B0F1804F0FD0134B9842DC
:105A00000CD0134B984209D0124B984206D08842D2
:105A100004D01149884201D0904207D181680F4AD1
:105A20001140062906D0B1F5803F03D0016841F04E
:105A300001010160002030BD000001400004014070
:105A40000040014000440140004801400004004083
:105A500000080040000C0040001800400700010052
:105A600000680349884201D1FDF7C6B970470000BC
:105A700000000140704730B590F88410012918D01B
:105A8000012280F884202421C0F8881000222024DC
:105A900001680B680D6823F0005325F001050D60C7
:105AA000426601680B60C0F8884080F88420104688
:105AB00030BD022030BD70B5044690F88400012846
:105AC0001DD0012284F884202420C4F88800206896
:105AD0000568026822F0010202602068826822F0F4
